{
    "_format": "hh-sol-artifact-1",
    "contractName": "MACAccessControl",
    "sourceName": "contracts/AccessControl.sol",
    "abi": [
        {
            "inputs": [],
            "stateMutability": "nonpayable",
            "type": "constructor"
        },
        {
            "inputs": [],
            "name": "AccessControlBadConfirmation",
            "type": "error"
        },
        {
            "inputs": [
                {
                    "internalType": "address",
                    "name": "account",
                    "type": "address"
                },
                {
                    "internalType": "bytes32",
                    "name": "neededRole",
                    "type": "bytes32"
                }
            ],
            "name": "AccessControlUnauthorizedAccount",
            "type": "error"
        },
        {
            "anonymous": false,
            "inputs": [
                {
                    "indexed": true,
                    "internalType": "bytes32",
                    "name": "role",
                    "type": "bytes32"
                },
                {
                    "indexed": true,
                    "internalType": "bytes32",
                    "name": "previousAdminRole",
                    "type": "bytes32"
                },
                {
                    "indexed": true,
                    "internalType": "bytes32",
                    "name": "newAdminRole",
                    "type": "bytes32"
                }
            ],
            "name": "RoleAdminChanged",
            "type": "event"
        },
        {
            "anonymous": false,
            "inputs": [
                {
                    "indexed": true,
                    "internalType": "bytes32",
                    "name": "role",
                    "type": "bytes32"
                },
                {
                    "indexed": true,
                    "internalType": "address",
                    "name": "account",
                    "type": "address"
                },
                {
                    "indexed": true,
                    "internalType": "address",
                    "name": "sender",
                    "type": "address"
                }
            ],
            "name": "RoleGranted",
            "type": "event"
        },
        {
            "anonymous": false,
            "inputs": [
                {
                    "indexed": true,
                    "internalType": "bytes32",
                    "name": "role",
                    "type": "bytes32"
                },
                {
                    "indexed": true,
                    "internalType": "address",
                    "name": "account",
                    "type": "address"
                },
                {
                    "indexed": true,
                    "internalType": "address",
                    "name": "sender",
                    "type": "address"
                }
            ],
            "name": "RoleRevoked",
            "type": "event"
        },
        {
            "inputs": [],
            "name": "ADMIN_ROLE",
            "outputs": [
                {
                    "internalType": "bytes32",
                    "name": "",
                    "type": "bytes32"
                }
            ],
            "stateMutability": "view",
            "type": "function"
        },
        {
            "inputs": [],
            "name": "ADVERTISER_ROLE",
            "outputs": [
                {
                    "internalType": "bytes32",
                    "name": "",
                    "type": "bytes32"
                }
            ],
            "stateMutability": "view",
            "type": "function"
        },
        {
            "inputs": [],
            "name": "CREATOR_ROLE",
            "outputs": [
                {
                    "internalType": "bytes32",
                    "name": "",
                    "type": "bytes32"
                }
            ],
            "stateMutability": "view",
            "type": "function"
        },
        {
            "inputs": [],
            "name": "DEFAULT_ADMIN_ROLE",
            "outputs": [
                {
                    "internalType": "bytes32",
                    "name": "",
                    "type": "bytes32"
                }
            ],
            "stateMutability": "view",
            "type": "function"
        },
        {
            "inputs": [
                {
                    "internalType": "address",
                    "name": "user",
                    "type": "address"
                }
            ],
            "name": "assignAdvertiserRole",
            "outputs": [],
            "stateMutability": "nonpayable",
            "type": "function"
        },
        {
            "inputs": [
                {
                    "internalType": "address",
                    "name": "user",
                    "type": "address"
                }
            ],
            "name": "assignCreatorRole",
            "outputs": [],
            "stateMutability": "nonpayable",
            "type": "function"
        },
        {
            "inputs": [
                {
                    "internalType": "bytes32",
                    "name": "role",
                    "type": "bytes32"
                }
            ],
            "name": "getRoleAdmin",
            "outputs": [
                {
                    "internalType": "bytes32",
                    "name": "",
                    "type": "bytes32"
                }
            ],
            "stateMutability": "view",
            "type": "function"
        },
        {
            "inputs": [
                {
                    "internalType": "bytes32",
                    "name": "role",
                    "type": "bytes32"
                },
                {
                    "internalType": "address",
                    "name": "account",
                    "type": "address"
                }
            ],
            "name": "grantRole",
            "outputs": [],
            "stateMutability": "nonpayable",
            "type": "function"
        },
        {
            "inputs": [
                {
                    "internalType": "bytes32",
                    "name": "role",
                    "type": "bytes32"
                },
                {
                    "internalType": "address",
                    "name": "account",
                    "type": "address"
                }
            ],
            "name": "hasRole",
            "outputs": [
                {
                    "internalType": "bool",
                    "name": "",
                    "type": "bool"
                }
            ],
            "stateMutability": "view",
            "type": "function"
        },
        {
            "inputs": [
                {
                    "internalType": "address",
                    "name": "account",
                    "type": "address"
                }
            ],
            "name": "isAdmin",
            "outputs": [
                {
                    "internalType": "bool",
                    "name": "",
                    "type": "bool"
                }
            ],
            "stateMutability": "view",
            "type": "function"
        },
        {
            "inputs": [
                {
                    "internalType": "address",
                    "name": "account",
                    "type": "address"
                }
            ],
            "name": "isAdvertiser",
            "outputs": [
                {
                    "internalType": "bool",
                    "name": "",
                    "type": "bool"
                }
            ],
            "stateMutability": "view",
            "type": "function"
        },
        {
            "inputs": [
                {
                    "internalType": "address",
                    "name": "account",
                    "type": "address"
                }
            ],
            "name": "isCreator",
            "outputs": [
                {
                    "internalType": "bool",
                    "name": "",
                    "type": "bool"
                }
            ],
            "stateMutability": "view",
            "type": "function"
        },
        {
            "inputs": [
                {
                    "internalType": "bytes32",
                    "name": "role",
                    "type": "bytes32"
                },
                {
                    "internalType": "address",
                    "name": "callerConfirmation",
                    "type": "address"
                }
            ],
            "name": "renounceRole",
            "outputs": [],
            "stateMutability": "nonpayable",
            "type": "function"
        },
        {
            "inputs": [
                {
                    "internalType": "address",
                    "name": "user",
                    "type": "address"
                }
            ],
            "name": "revokeAdvertiserRole",
            "outputs": [],
            "stateMutability": "nonpayable",
            "type": "function"
        },
        {
            "inputs": [
                {
                    "internalType": "address",
                    "name": "user",
                    "type": "address"
                }
            ],
            "name": "revokeCreatorRole",
            "outputs": [],
            "stateMutability": "nonpayable",
            "type": "function"
        },
        {
            "inputs": [
                {
                    "internalType": "bytes32",
                    "name": "role",
                    "type": "bytes32"
                },
                {
                    "internalType": "address",
                    "name": "account",
                    "type": "address"
                }
            ],
            "name": "revokeRole",
            "outputs": [],
            "stateMutability": "nonpayable",
            "type": "function"
        },
        {
            "inputs": [
                {
                    "internalType": "bytes4",
                    "name": "interfaceId",
                    "type": "bytes4"
                }
            ],
            "name": "supportsInterface",
            "outputs": [
                {
                    "internalType": "bool",
                    "name": "",
                    "type": "bool"
                }
            ],
            "stateMutability": "view",
            "type": "function"
        }
    ],
    "bytecode": "0x608060405234801561001057600080fd5b506100417fa49807205ce4d355092ef5a8a18f56e8913cf4a201fbe287825b095693c21775336100e760201b60201c565b506100927fae8a96feb7fa1c6eb9c1e5eab8f95f300b7a12b0ec1cf03c4c1752196e6e7b617fa49807205ce4d355092ef5a8a18f56e8913cf4a201fbe287825b095693c217756101e460201b60201c565b6100e27f828634d95e775031b9ff576b159a8509d3053581a8c9c4d7d86899e0afcd882f7fa49807205ce4d355092ef5a8a18f56e8913cf4a201fbe287825b095693c217756101e460201b60201c565b6102d6565b60006100f9838361024560201b60201c565b6101d957600160008085815260200190815260200160002060000160008473ffffffffffffffffffffffffffffffffffffffff1673ffffffffffffffffffffffffffffffffffffffff16815260200190815260200160002060006101000a81548160ff0219169083151502179055506101766102af60201b60201c565b73ffffffffffffffffffffffffffffffffffffffff168273ffffffffffffffffffffffffffffffffffffffff16847f2f8788117e7eff1d82e926ec794901d17c78024a50270940304540a733656f0d60405160405180910390a4600190506101de565b600090505b92915050565b60006101f5836102b760201b60201c565b905081600080858152602001908152602001600020600101819055508181847fbd79b86ffe0ab8e8776151514217cd7cacd52c909f66475c3af44e129f0b00ff60405160405180910390a4505050565b600080600084815260200190815260200160002060000160008373ffffffffffffffffffffffffffffffffffffffff1673ffffffffffffffffffffffffffffffffffffffff16815260200190815260200160002060009054906101000a900460ff16905092915050565b600033905090565b6000806000838152602001908152602001600020600101549050919050565b610cda806102e56000396000f3fe608060405234801561001057600080fd5b506004361061010b5760003560e01c80636ed906b9116100a2578063a217fddf11610071578063a217fddf146102c8578063b05777b1146102e6578063d547741f14610302578063e58c45341461031e578063efd460651461033c5761010b565b80636ed906b91461022c57806375b238fc1461025c5780638aeda25a1461027a57806391d14854146102985761010b565b80632f2ff15d116100de5780632f2ff15d146101bc57806333af252d146101d857806336568abe146101f457806345c98a3f146102105761010b565b806301ffc9a714610110578063248a9ca31461014057806324d7806c146101705780632728ee07146101a0575b600080fd5b61012a60048036038101906101259190610ab1565b61036c565b6040516101379190610af9565b60405180910390f35b61015a60048036038101906101559190610b4a565b6103e6565b6040516101679190610b86565b60405180910390f35b61018a60048036038101906101859190610bff565b610405565b6040516101979190610af9565b60405180910390f35b6101ba60048036038101906101b59190610bff565b610438565b005b6101d660048036038101906101d19190610c2c565b610490565b005b6101f260048036038101906101ed9190610bff565b6104b2565b005b61020e60048036038101906102099190610c2c565b61050a565b005b61022a60048036038101906102259190610bff565b610585565b005b61024660048036038101906102419190610bff565b6105dd565b6040516102539190610af9565b60405180910390f35b610264610610565b6040516102719190610b86565b60405180910390f35b610282610634565b60405161028f9190610b86565b60405180910390f35b6102b260048036038101906102ad9190610c2c565b610658565b6040516102bf9190610af9565b60405180910390f35b6102d06106c2565b6040516102dd9190610b86565b60405180910390f35b61030060048036038101906102fb9190610bff565b6106c9565b005b61031c60048036038101906103179190610c2c565b610721565b005b610326610743565b6040516103339190610b86565b60405180910390f35b61035660048036038101906103519190610bff565b610767565b6040516103639190610af9565b60405180910390f35b60007f7965db0b000000000000000000000000000000000000000000000000000000007bffffffffffffffffffffffffffffffffffffffffffffffffffffffff1916827bffffffffffffffffffffffffffffffffffffffffffffffffffffffff191614806103df57506103de8261079a565b5b9050919050565b6000806000838152602001908152602001600020600101549050919050565b60006104317fa49807205ce4d355092ef5a8a18f56e8913cf4a201fbe287825b095693c2177583610658565b9050919050565b7fa49807205ce4d355092ef5a8a18f56e8913cf4a201fbe287825b095693c2177561046281610804565b61048c7fae8a96feb7fa1c6eb9c1e5eab8f95f300b7a12b0ec1cf03c4c1752196e6e7b6183610721565b5050565b610499826103e6565b6104a281610804565b6104ac8383610818565b50505050565b7fa49807205ce4d355092ef5a8a18f56e8913cf4a201fbe287825b095693c217756104dc81610804565b6105067f828634d95e775031b9ff576b159a8509d3053581a8c9c4d7d86899e0afcd882f83610490565b5050565b610512610909565b73ffffffffffffffffffffffffffffffffffffffff168173ffffffffffffffffffffffffffffffffffffffff1614610576576040517f6697b23200000000000000000000000000000000000000000000000000000000815260040160405180910390fd5b6105808282610911565b505050565b7fa49807205ce4d355092ef5a8a18f56e8913cf4a201fbe287825b095693c217756105af81610804565b6105d97f828634d95e775031b9ff576b159a8509d3053581a8c9c4d7d86899e0afcd882f83610721565b5050565b60006106097fae8a96feb7fa1c6eb9c1e5eab8f95f300b7a12b0ec1cf03c4c1752196e6e7b6183610658565b9050919050565b7fa49807205ce4d355092ef5a8a18f56e8913cf4a201fbe287825b095693c2177581565b7f828634d95e775031b9ff576b159a8509d3053581a8c9c4d7d86899e0afcd882f81565b600080600084815260200190815260200160002060000160008373ffffffffffffffffffffffffffffffffffffffff1673ffffffffffffffffffffffffffffffffffffffff16815260200190815260200160002060009054906101000a900460ff16905092915050565b6000801b81565b7fa49807205ce4d355092ef5a8a18f56e8913cf4a201fbe287825b095693c217756106f381610804565b61071d7fae8a96feb7fa1c6eb9c1e5eab8f95f300b7a12b0ec1cf03c4c1752196e6e7b6183610490565b5050565b61072a826103e6565b61073381610804565b61073d8383610911565b50505050565b7fae8a96feb7fa1c6eb9c1e5eab8f95f300b7a12b0ec1cf03c4c1752196e6e7b6181565b60006107937f828634d95e775031b9ff576b159a8509d3053581a8c9c4d7d86899e0afcd882f83610658565b9050919050565b60007f01ffc9a7000000000000000000000000000000000000000000000000000000007bffffffffffffffffffffffffffffffffffffffffffffffffffffffff1916827bffffffffffffffffffffffffffffffffffffffffffffffffffffffff1916149050919050565b61081581610810610909565b610a03565b50565b60006108248383610658565b6108fe57600160008085815260200190815260200160002060000160008473ffffffffffffffffffffffffffffffffffffffff1673ffffffffffffffffffffffffffffffffffffffff16815260200190815260200160002060006101000a81548160ff02191690831515021790555061089b610909565b73ffffffffffffffffffffffffffffffffffffffff168273ffffffffffffffffffffffffffffffffffffffff16847f2f8788117e7eff1d82e926ec794901d17c78024a50270940304540a733656f0d60405160405180910390a460019050610903565b600090505b92915050565b600033905090565b600061091d8383610658565b156109f857600080600085815260200190815260200160002060000160008473ffffffffffffffffffffffffffffffffffffffff1673ffffffffffffffffffffffffffffffffffffffff16815260200190815260200160002060006101000a81548160ff021916908315150217905550610995610909565b73ffffffffffffffffffffffffffffffffffffffff168273ffffffffffffffffffffffffffffffffffffffff16847ff6391f5c32d9c69d2a47ea670b442974b53935d1edc7fd64eb21e047a839171b60405160405180910390a4600190506109fd565b600090505b92915050565b610a0d8282610658565b610a505780826040517fe2517d3f000000000000000000000000000000000000000000000000000000008152600401610a47929190610c7b565b60405180910390fd5b5050565b600080fd5b60007fffffffff0000000000000000000000000000000000000000000000000000000082169050919050565b610a8e81610a59565b8114610a9957600080fd5b50565b600081359050610aab81610a85565b92915050565b600060208284031215610ac757610ac6610a54565b5b6000610ad584828501610a9c565b91505092915050565b60008115159050919050565b610af381610ade565b82525050565b6000602082019050610b0e6000830184610aea565b92915050565b6000819050919050565b610b2781610b14565b8114610b3257600080fd5b50565b600081359050610b4481610b1e565b92915050565b600060208284031215610b6057610b5f610a54565b5b6000610b6e84828501610b35565b91505092915050565b610b8081610b14565b82525050565b6000602082019050610b9b6000830184610b77565b92915050565b600073ffffffffffffffffffffffffffffffffffffffff82169050919050565b6000610bcc82610ba1565b9050919050565b610bdc81610bc1565b8114610be757600080fd5b50565b600081359050610bf981610bd3565b92915050565b600060208284031215610c1557610c14610a54565b5b6000610c2384828501610bea565b91505092915050565b60008060408385031215610c4357610c42610a54565b5b6000610c5185828601610b35565b9250506020610c6285828601610bea565b9150509250929050565b610c7581610bc1565b82525050565b6000604082019050610c906000830185610c6c565b610c9d6020830184610b77565b939250505056fea264697066735822122088ff9ca318f1e7b533274be0182843d2c2886541d05da76eb707737200fd91ae64736f6c63430008180033",
    "linkReferences": {},
    "deployedLinkReferences": {}
}