{
  "_format": "hh-sol-artifact-1",
  "contractName": "MacMain",
  "sourceName": "contracts/MacMain.sol",
  "abi": [
    {
      "inputs": [
        {
          "internalType": "address",
          "name": "_advertismentContractAddress",
          "type": "address"
        },
        {
          "internalType": "address",
          "name": "_paymentContractAddress",
          "type": "address"
        },
        {
          "internalType": "address",
          "name": "_accessControlContractAddress",
          "type": "address"
        }
      ],
      "stateMutability": "nonpayable",
      "type": "constructor"
    },
    {
      "anonymous": false,
      "inputs": [
        {
          "indexed": false,
          "internalType": "uint256",
          "name": "",
          "type": "uint256"
        }
      ],
      "name": "ReturnId",
      "type": "event"
    },
    {
      "inputs": [
        {
          "internalType": "uint256",
          "name": "advertismentId",
          "type": "uint256"
        }
      ],
      "name": "acceptAdvertisment",
      "outputs": [],
      "stateMutability": "nonpayable",
      "type": "function"
    },
    {
      "inputs": [],
      "name": "accessControlContract",
      "outputs": [
        {
          "internalType": "contract IAccessControl",
          "name": "",
          "type": "address"
        }
      ],
      "stateMutability": "view",
      "type": "function"
    },
    {
      "inputs": [],
      "name": "advertismentContract",
      "outputs": [
        {
          "internalType": "contract IAdvertisment",
          "name": "",
          "type": "address"
        }
      ],
      "stateMutability": "view",
      "type": "function"
    },
    {
      "inputs": [
        {
          "internalType": "address",
          "name": "creator",
          "type": "address"
        },
        {
          "internalType": "uint256",
          "name": "budget",
          "type": "uint256"
        },
        {
          "internalType": "address",
          "name": "token",
          "type": "address"
        },
        {
          "internalType": "uint256",
          "name": "milestoneThreshold",
          "type": "uint256"
        },
        {
          "internalType": "uint256",
          "name": "CPM",
          "type": "uint256"
        }
      ],
      "name": "createAdvertisment",
      "outputs": [
        {
          "internalType": "uint256",
          "name": "",
          "type": "uint256"
        }
      ],
      "stateMutability": "nonpayable",
      "type": "function"
    },
    {
      "inputs": [
        {
          "internalType": "uint256",
          "name": "id",
          "type": "uint256"
        }
      ],
      "name": "getAdvertisment",
      "outputs": [
        {
          "components": [
            {
              "internalType": "uint256",
              "name": "id",
              "type": "uint256"
            },
            {
              "internalType": "address",
              "name": "advertiser",
              "type": "address"
            },
            {
              "internalType": "address",
              "name": "creator",
              "type": "address"
            },
            {
              "internalType": "uint256",
              "name": "budget",
              "type": "uint256"
            },
            {
              "internalType": "bool",
              "name": "isAccepted",
              "type": "bool"
            },
            {
              "internalType": "address",
              "name": "token",
              "type": "address"
            },
            {
              "internalType": "bool",
              "name": "isFunded",
              "type": "bool"
            },
            {
              "internalType": "bool",
              "name": "isActive",
              "type": "bool"
            },
            {
              "internalType": "uint256",
              "name": "milestoneThreshold",
              "type": "uint256"
            },
            {
              "internalType": "uint256",
              "name": "CPM",
              "type": "uint256"
            },
            {
              "internalType": "uint256",
              "name": "amountToBePaid",
              "type": "uint256"
            },
            {
              "internalType": "uint256",
              "name": "clicks",
              "type": "uint256"
            }
          ],
          "internalType": "struct IAdvertisment.Advertisment",
          "name": "",
          "type": "tuple"
        }
      ],
      "stateMutability": "view",
      "type": "function"
    },
    {
      "inputs": [
        {
          "internalType": "address",
          "name": "account",
          "type": "address"
        }
      ],
      "name": "grantAdvertiserRole",
      "outputs": [],
      "stateMutability": "nonpayable",
      "type": "function"
    },
    {
      "inputs": [
        {
          "internalType": "address",
          "name": "account",
          "type": "address"
        }
      ],
      "name": "grantCreatorRole",
      "outputs": [],
      "stateMutability": "nonpayable",
      "type": "function"
    },
    {
      "inputs": [
        {
          "internalType": "bytes32",
          "name": "role",
          "type": "bytes32"
        },
        {
          "internalType": "address",
          "name": "account",
          "type": "address"
        }
      ],
      "name": "hasRole",
      "outputs": [
        {
          "internalType": "bool",
          "name": "",
          "type": "bool"
        }
      ],
      "stateMutability": "view",
      "type": "function"
    },
    {
      "inputs": [],
      "name": "paymentContract",
      "outputs": [
        {
          "internalType": "contract IPayment",
          "name": "",
          "type": "address"
        }
      ],
      "stateMutability": "view",
      "type": "function"
    },
    {
      "inputs": [
        {
          "internalType": "uint256",
          "name": "advertismentId",
          "type": "uint256"
        }
      ],
      "name": "rejectAdvertisment",
      "outputs": [],
      "stateMutability": "nonpayable",
      "type": "function"
    },
    {
      "inputs": [
        {
          "internalType": "address",
          "name": "account",
          "type": "address"
        }
      ],
      "name": "revokeAdvertiserRole",
      "outputs": [],
      "stateMutability": "nonpayable",
      "type": "function"
    },
    {
      "inputs": [
        {
          "internalType": "address",
          "name": "account",
          "type": "address"
        }
      ],
      "name": "revokeCreatorRole",
      "outputs": [],
      "stateMutability": "nonpayable",
      "type": "function"
    }
  ],
  "bytecode": "0x60806040523480156200001157600080fd5b50604051620018463803806200184683398181016040528101906200003791906200016c565b826000806101000a81548173ffffffffffffffffffffffffffffffffffffffff021916908373ffffffffffffffffffffffffffffffffffffffff16021790555081600160006101000a81548173ffffffffffffffffffffffffffffffffffffffff021916908373ffffffffffffffffffffffffffffffffffffffff16021790555080600260006101000a81548173ffffffffffffffffffffffffffffffffffffffff021916908373ffffffffffffffffffffffffffffffffffffffff160217905550505050620001c8565b600080fd5b600073ffffffffffffffffffffffffffffffffffffffff82169050919050565b6000620001348262000107565b9050919050565b620001468162000127565b81146200015257600080fd5b50565b60008151905062000166816200013b565b92915050565b60008060006060848603121562000188576200018762000102565b5b6000620001988682870162000155565b9350506020620001ab8682870162000155565b9250506040620001be8682870162000155565b9150509250925092565b61166e80620001d86000396000f3fe608060405234801561001057600080fd5b50600436106100b45760003560e01c80634d43e6f0116100715780634d43e6f0146101775780637a2f0fd4146101935780638c76b1db146101b157806391d14854146101e15780639c91dd5614610211578063ad617fda1461022f576100b4565b80630ffdfb8d146100b957806319d3b81a146100e957806321fcc185146101055780632728ee071461012357806345c98a3f1461013f57806349f77a4d1461015b575b600080fd5b6100d360048036038101906100ce9190610deb565b61024b565b6040516100e09190610e75565b60405180910390f35b61010360048036038101906100fe9190610e90565b6104a7565b005b61010d610537565b60405161011a9190610f1c565b60405180910390f35b61013d60048036038101906101389190610e90565b61055d565b005b61015960048036038101906101549190610e90565b6105ed565b005b61017560048036038101906101709190610f37565b61067d565b005b610191600480360381019061018c9190610e90565b610878565b005b61019b610908565b6040516101a89190610f85565b60405180910390f35b6101cb60048036038101906101c69190610f37565b61092c565b6040516101d891906110cf565b60405180910390f35b6101fb60048036038101906101f69190611121565b6109d6565b6040516102089190611170565b60405180910390f35b610219610a7e565b60405161022691906111ac565b60405180910390f35b61024960048036038101906102449190610f37565b610aa4565b005b6000600260009054906101000a900473ffffffffffffffffffffffffffffffffffffffff1673ffffffffffffffffffffffffffffffffffffffff166391d14854600260009054906101000a900473ffffffffffffffffffffffffffffffffffffffff1673ffffffffffffffffffffffffffffffffffffffff1663e58c45346040518163ffffffff1660e01b8152600401602060405180830381865afa1580156102f8573d6000803e3d6000fd5b505050506040513d601f19601f8201168201806040525081019061031c91906111dc565b336040518363ffffffff1660e01b815260040161033a929190611227565b602060405180830381865afa158015610357573d6000803e3d6000fd5b505050506040513d601f19601f8201168201806040525081019061037b919061127c565b6103ba576040517f08c379a00000000000000000000000000000000000000000000000000000000081526004016103b190611306565b60405180910390fd5b60008060009054906101000a900473ffffffffffffffffffffffffffffffffffffffff1673ffffffffffffffffffffffffffffffffffffffff16630ffdfb8d88888888886040518663ffffffff1660e01b815260040161041e959493929190611326565b6020604051808303816000875af115801561043d573d6000803e3d6000fd5b505050506040513d601f19601f82011682018060405250810190610461919061138e565b90507f31b20fd6cb50a47d191695f736fbe0aab668080af963b16bc35d4218af7a6a3a816040516104929190610e75565b60405180910390a18091505095945050505050565b600260009054906101000a900473ffffffffffffffffffffffffffffffffffffffff1673ffffffffffffffffffffffffffffffffffffffff1663b05777b1826040518263ffffffff1660e01b815260040161050291906113bb565b600060405180830381600087803b15801561051c57600080fd5b505af1158015610530573d6000803e3d6000fd5b5050505050565b600260009054906101000a900473ffffffffffffffffffffffffffffffffffffffff1681565b600260009054906101000a900473ffffffffffffffffffffffffffffffffffffffff1673ffffffffffffffffffffffffffffffffffffffff16632728ee07826040518263ffffffff1660e01b81526004016105b891906113bb565b600060405180830381600087803b1580156105d257600080fd5b505af11580156105e6573d6000803e3d6000fd5b5050505050565b600260009054906101000a900473ffffffffffffffffffffffffffffffffffffffff1673ffffffffffffffffffffffffffffffffffffffff166345c98a3f826040518263ffffffff1660e01b815260040161064891906113bb565b600060405180830381600087803b15801561066257600080fd5b505af1158015610676573d6000803e3d6000fd5b5050505050565b600260009054906101000a900473ffffffffffffffffffffffffffffffffffffffff1673ffffffffffffffffffffffffffffffffffffffff166391d14854600260009054906101000a900473ffffffffffffffffffffffffffffffffffffffff1673ffffffffffffffffffffffffffffffffffffffff16638aeda25a6040518163ffffffff1660e01b8152600401602060405180830381865afa158015610728573d6000803e3d6000fd5b505050506040513d601f19601f8201168201806040525081019061074c91906111dc565b336040518363ffffffff1660e01b815260040161076a929190611227565b602060405180830381865afa158015610787573d6000803e3d6000fd5b505050506040513d601f19601f820116820180604052508101906107ab919061127c565b6107ea576040517f08c379a00000000000000000000000000000000000000000000000000000000081526004016107e190611422565b60405180910390fd5b60008054906101000a900473ffffffffffffffffffffffffffffffffffffffff1673ffffffffffffffffffffffffffffffffffffffff166349f77a4d826040518263ffffffff1660e01b81526004016108439190610e75565b600060405180830381600087803b15801561085d57600080fd5b505af1158015610871573d6000803e3d6000fd5b5050505050565b600260009054906101000a900473ffffffffffffffffffffffffffffffffffffffff1673ffffffffffffffffffffffffffffffffffffffff166333af252d826040518263ffffffff1660e01b81526004016108d391906113bb565b600060405180830381600087803b1580156108ed57600080fd5b505af1158015610901573d6000803e3d6000fd5b5050505050565b60008054906101000a900473ffffffffffffffffffffffffffffffffffffffff1681565b610934610c9f565b60008054906101000a900473ffffffffffffffffffffffffffffffffffffffff1673ffffffffffffffffffffffffffffffffffffffff16638c76b1db836040518263ffffffff1660e01b815260040161098d9190610e75565b61018060405180830381865afa1580156109ab573d6000803e3d6000fd5b505050506040513d601f19601f820116820180604052508101906109cf919061160a565b9050919050565b6000600260009054906101000a900473ffffffffffffffffffffffffffffffffffffffff1673ffffffffffffffffffffffffffffffffffffffff166391d1485484846040518363ffffffff1660e01b8152600401610a35929190611227565b602060405180830381865afa158015610a52573d6000803e3d6000fd5b505050506040513d601f19601f82011682018060405250810190610a76919061127c565b905092915050565b600160009054906101000a900473ffffffffffffffffffffffffffffffffffffffff1681565b600260009054906101000a900473ffffffffffffffffffffffffffffffffffffffff1673ffffffffffffffffffffffffffffffffffffffff166391d14854600260009054906101000a900473ffffffffffffffffffffffffffffffffffffffff1673ffffffffffffffffffffffffffffffffffffffff16638aeda25a6040518163ffffffff1660e01b8152600401602060405180830381865afa158015610b4f573d6000803e3d6000fd5b505050506040513d601f19601f82011682018060405250810190610b7391906111dc565b336040518363ffffffff1660e01b8152600401610b91929190611227565b602060405180830381865afa158015610bae573d6000803e3d6000fd5b505050506040513d601f19601f82011682018060405250810190610bd2919061127c565b610c11576040517f08c379a0000000000000000000000000000000000000000000000000000000008152600401610c0890611422565b60405180910390fd5b60008054906101000a900473ffffffffffffffffffffffffffffffffffffffff1673ffffffffffffffffffffffffffffffffffffffff1663ad617fda826040518263ffffffff1660e01b8152600401610c6a9190610e75565b600060405180830381600087803b158015610c8457600080fd5b505af1158015610c98573d6000803e3d6000fd5b5050505050565b60405180610180016040528060008152602001600073ffffffffffffffffffffffffffffffffffffffff168152602001600073ffffffffffffffffffffffffffffffffffffffff16815260200160008152602001600015158152602001600073ffffffffffffffffffffffffffffffffffffffff168152602001600015158152602001600015158152602001600081526020016000815260200160008152602001600081525090565b6000604051905090565b600080fd5b600073ffffffffffffffffffffffffffffffffffffffff82169050919050565b6000610d8282610d57565b9050919050565b610d9281610d77565b8114610d9d57600080fd5b50565b600081359050610daf81610d89565b92915050565b6000819050919050565b610dc881610db5565b8114610dd357600080fd5b50565b600081359050610de581610dbf565b92915050565b600080600080600060a08688031215610e0757610e06610d52565b5b6000610e1588828901610da0565b9550506020610e2688828901610dd6565b9450506040610e3788828901610da0565b9350506060610e4888828901610dd6565b9250506080610e5988828901610dd6565b9150509295509295909350565b610e6f81610db5565b82525050565b6000602082019050610e8a6000830184610e66565b92915050565b600060208284031215610ea657610ea5610d52565b5b6000610eb484828501610da0565b91505092915050565b6000819050919050565b6000610ee2610edd610ed884610d57565b610ebd565b610d57565b9050919050565b6000610ef482610ec7565b9050919050565b6000610f0682610ee9565b9050919050565b610f1681610efb565b82525050565b6000602082019050610f316000830184610f0d565b92915050565b600060208284031215610f4d57610f4c610d52565b5b6000610f5b84828501610dd6565b91505092915050565b6000610f6f82610ee9565b9050919050565b610f7f81610f64565b82525050565b6000602082019050610f9a6000830184610f76565b92915050565b610fa981610db5565b82525050565b610fb881610d77565b82525050565b60008115159050919050565b610fd381610fbe565b82525050565b61018082016000820151610ff06000850182610fa0565b5060208201516110036020850182610faf565b5060408201516110166040850182610faf565b5060608201516110296060850182610fa0565b50608082015161103c6080850182610fca565b5060a082015161104f60a0850182610faf565b5060c082015161106260c0850182610fca565b5060e082015161107560e0850182610fca565b5061010082015161108a610100850182610fa0565b5061012082015161109f610120850182610fa0565b506101408201516110b4610140850182610fa0565b506101608201516110c9610160850182610fa0565b50505050565b6000610180820190506110e56000830184610fd9565b92915050565b6000819050919050565b6110fe816110eb565b811461110957600080fd5b50565b60008135905061111b816110f5565b92915050565b6000806040838503121561113857611137610d52565b5b60006111468582860161110c565b925050602061115785828601610da0565b9150509250929050565b61116a81610fbe565b82525050565b60006020820190506111856000830184611161565b92915050565b600061119682610ee9565b9050919050565b6111a68161118b565b82525050565b60006020820190506111c1600083018461119d565b92915050565b6000815190506111d6816110f5565b92915050565b6000602082840312156111f2576111f1610d52565b5b6000611200848285016111c7565b91505092915050565b611212816110eb565b82525050565b61122181610d77565b82525050565b600060408201905061123c6000830185611209565b6112496020830184611218565b9392505050565b61125981610fbe565b811461126457600080fd5b50565b60008151905061127681611250565b92915050565b60006020828403121561129257611291610d52565b5b60006112a084828501611267565b91505092915050565b600082825260208201905092915050565b7f43616c6c6572206973206e6f7420616e20616476657274697365720000000000600082015250565b60006112f0601b836112a9565b91506112fb826112ba565b602082019050919050565b6000602082019050818103600083015261131f816112e3565b9050919050565b600060a08201905061133b6000830188611218565b6113486020830187610e66565b6113556040830186611218565b6113626060830185610e66565b61136f6080830184610e66565b9695505050505050565b60008151905061138881610dbf565b92915050565b6000602082840312156113a4576113a3610d52565b5b60006113b284828501611379565b91505092915050565b60006020820190506113d06000830184611218565b92915050565b7f43616c6c6572206973206e6f7420612063726561746f72000000000000000000600082015250565b600061140c6017836112a9565b9150611417826113d6565b602082019050919050565b6000602082019050818103600083015261143b816113ff565b9050919050565b600080fd5b6000601f19601f8301169050919050565b7f4e487b7100000000000000000000000000000000000000000000000000000000600052604160045260246000fd5b61149082611447565b810181811067ffffffffffffffff821117156114af576114ae611458565b5b80604052505050565b60006114c2610d48565b90506114ce8282611487565b919050565b6000815190506114e281610d89565b92915050565b600061018082840312156114ff576114fe611442565b5b61150a6101806114b8565b9050600061151a84828501611379565b600083015250602061152e848285016114d3565b6020830152506040611542848285016114d3565b604083015250606061155684828501611379565b606083015250608061156a84828501611267565b60808301525060a061157e848285016114d3565b60a08301525060c061159284828501611267565b60c08301525060e06115a684828501611267565b60e0830152506101006115bb84828501611379565b610100830152506101206115d184828501611379565b610120830152506101406115e784828501611379565b610140830152506101606115fd84828501611379565b6101608301525092915050565b6000610180828403121561162157611620610d52565b5b600061162f848285016114e8565b9150509291505056fea264697066735822122097ad6e0e6d52b20cbf587c2f48d5f86677dd7588fe761450efc11db518afa5e364736f6c63430008180033",
  "linkReferences": {},
  "deployedLinkReferences": {}
}