{
  "_format": "hh-sol-artifact-1",
  "contractName": "MacMain",
  "sourceName": "contracts/MacMain.sol",
  "abi": [
    {
      "inputs": [
        {
          "internalType": "address",
          "name": "_advertisementContractAddress",
          "type": "address"
        },
        {
          "internalType": "address",
          "name": "_paymentContractAddress",
          "type": "address"
        },
        {
          "internalType": "address",
          "name": "_accessControlContractAddress",
          "type": "address"
        }
      ],
      "stateMutability": "nonpayable",
      "type": "constructor"
    },
    {
      "inputs": [
        {
          "internalType": "uint256",
          "name": "advertisementId",
          "type": "uint256"
        }
      ],
      "name": "acceptAdvertisement",
      "outputs": [],
      "stateMutability": "nonpayable",
      "type": "function"
    },
    {
      "inputs": [],
      "name": "accessControlContract",
      "outputs": [
        {
          "internalType": "contract IAccessControl",
          "name": "",
          "type": "address"
        }
      ],
      "stateMutability": "view",
      "type": "function"
    },
    {
      "inputs": [],
      "name": "advertisementContract",
      "outputs": [
        {
          "internalType": "contract IAdvertisement",
          "name": "",
          "type": "address"
        }
      ],
      "stateMutability": "view",
      "type": "function"
    },
    {
      "inputs": [
        {
          "internalType": "uint256",
          "name": "id",
          "type": "uint256"
        },
        {
          "internalType": "address",
          "name": "creator",
          "type": "address"
        },
        {
          "internalType": "uint256",
          "name": "budget",
          "type": "uint256"
        },
        {
          "internalType": "address",
          "name": "token",
          "type": "address"
        },
        {
          "internalType": "uint256",
          "name": "milestoneThreshold",
          "type": "uint256"
        },
        {
          "internalType": "uint256",
          "name": "CPM",
          "type": "uint256"
        }
      ],
      "name": "createAdvertisement",
      "outputs": [],
      "stateMutability": "nonpayable",
      "type": "function"
    },
    {
      "inputs": [
        {
          "internalType": "uint256",
          "name": "id",
          "type": "uint256"
        }
      ],
      "name": "getAdvertisement",
      "outputs": [
        {
          "components": [
            {
              "internalType": "uint256",
              "name": "id",
              "type": "uint256"
            },
            {
              "internalType": "address",
              "name": "advertiser",
              "type": "address"
            },
            {
              "internalType": "address",
              "name": "creator",
              "type": "address"
            },
            {
              "internalType": "uint256",
              "name": "budget",
              "type": "uint256"
            },
            {
              "internalType": "bool",
              "name": "isAccepted",
              "type": "bool"
            },
            {
              "internalType": "address",
              "name": "token",
              "type": "address"
            },
            {
              "internalType": "bool",
              "name": "isFunded",
              "type": "bool"
            },
            {
              "internalType": "bool",
              "name": "isActive",
              "type": "bool"
            },
            {
              "internalType": "uint256",
              "name": "milestoneThreshold",
              "type": "uint256"
            },
            {
              "internalType": "uint256",
              "name": "CPM",
              "type": "uint256"
            },
            {
              "internalType": "uint256",
              "name": "amountToBePaid",
              "type": "uint256"
            },
            {
              "internalType": "uint256",
              "name": "clicks",
              "type": "uint256"
            }
          ],
          "internalType": "struct IAdvertisement.Advertisement",
          "name": "",
          "type": "tuple"
        }
      ],
      "stateMutability": "view",
      "type": "function"
    },
    {
      "inputs": [
        {
          "internalType": "address",
          "name": "account",
          "type": "address"
        }
      ],
      "name": "grantAdvertiserRole",
      "outputs": [],
      "stateMutability": "nonpayable",
      "type": "function"
    },
    {
      "inputs": [
        {
          "internalType": "address",
          "name": "account",
          "type": "address"
        }
      ],
      "name": "grantCreatorRole",
      "outputs": [],
      "stateMutability": "nonpayable",
      "type": "function"
    },
    {
      "inputs": [
        {
          "internalType": "bytes32",
          "name": "role",
          "type": "bytes32"
        },
        {
          "internalType": "address",
          "name": "account",
          "type": "address"
        }
      ],
      "name": "hasRole",
      "outputs": [
        {
          "internalType": "bool",
          "name": "",
          "type": "bool"
        }
      ],
      "stateMutability": "view",
      "type": "function"
    },
    {
      "inputs": [
        {
          "internalType": "uint256",
          "name": "id",
          "type": "uint256"
        }
      ],
      "name": "isAccepted",
      "outputs": [
        {
          "internalType": "bool",
          "name": "",
          "type": "bool"
        }
      ],
      "stateMutability": "view",
      "type": "function"
    },
    {
      "inputs": [
        {
          "internalType": "uint256",
          "name": "id",
          "type": "uint256"
        }
      ],
      "name": "isActive",
      "outputs": [
        {
          "internalType": "bool",
          "name": "",
          "type": "bool"
        }
      ],
      "stateMutability": "view",
      "type": "function"
    },
    {
      "inputs": [],
      "name": "paymentContract",
      "outputs": [
        {
          "internalType": "contract IPayment",
          "name": "",
          "type": "address"
        }
      ],
      "stateMutability": "view",
      "type": "function"
    },
    {
      "inputs": [
        {
          "internalType": "uint256",
          "name": "advertisementId",
          "type": "uint256"
        }
      ],
      "name": "rejectAdvertisement",
      "outputs": [],
      "stateMutability": "nonpayable",
      "type": "function"
    }
  ],
  "bytecode": "0x60806040523480156200001157600080fd5b5060405162001ce838038062001ce883398181016040528101906200003791906200016c565b826000806101000a81548173ffffffffffffffffffffffffffffffffffffffff021916908373ffffffffffffffffffffffffffffffffffffffff16021790555081600160006101000a81548173ffffffffffffffffffffffffffffffffffffffff021916908373ffffffffffffffffffffffffffffffffffffffff16021790555080600260006101000a81548173ffffffffffffffffffffffffffffffffffffffff021916908373ffffffffffffffffffffffffffffffffffffffff160217905550505050620001c8565b600080fd5b600073ffffffffffffffffffffffffffffffffffffffff82169050919050565b6000620001348262000107565b9050919050565b620001468162000127565b81146200015257600080fd5b50565b60008151905062000166816200013b565b92915050565b60008060006060848603121562000188576200018762000102565b5b6000620001988682870162000155565b9350506020620001ab8682870162000155565b9250506040620001be8682870162000155565b9150509250925092565b611b1080620001d86000396000f3fe608060405234801561001057600080fd5b50600436106100b45760003560e01c80634d43e6f0116100715780634d43e6f01461018d578063743e32a0146101a957806382afd23b146101c557806391d14854146101f55780639c91dd5614610225578063ae86d33014610243576100b4565b8063033b279f146100b95780630f990f19146100d557806319d3b81a1461010557806321fcc1851461012157806329bc3b851461013f5780634b5dcb211461016f575b600080fd5b6100d360048036038101906100ce91906111dd565b61025f565b005b6100ef60048036038101906100ea919061126a565b610469565b6040516100fc91906113c6565b60405180910390f35b61011f600480360381019061011a91906113e2565b610513565b005b6101296107a2565b604051610136919061146e565b60405180910390f35b6101596004803603810190610154919061126a565b6107c8565b6040516101669190611498565b60405180910390f35b610177610871565b60405161018491906114d4565b60405180910390f35b6101a760048036038101906101a291906113e2565b610895565b005b6101c360048036038101906101be919061126a565b610b24565b005b6101df60048036038101906101da919061126a565b610d1f565b6040516101ec9190611498565b60405180910390f35b61020f600480360381019061020a9190611525565b610dc8565b60405161021c9190611498565b60405180910390f35b61022d610e70565b60405161023a9190611586565b60405180910390f35b61025d6004803603810190610258919061126a565b610e96565b005b600260009054906101000a900473ffffffffffffffffffffffffffffffffffffffff1673ffffffffffffffffffffffffffffffffffffffff166391d14854600260009054906101000a900473ffffffffffffffffffffffffffffffffffffffff1673ffffffffffffffffffffffffffffffffffffffff1663e58c45346040518163ffffffff1660e01b8152600401602060405180830381865afa15801561030a573d6000803e3d6000fd5b505050506040513d601f19601f8201168201806040525081019061032e91906115b6565b336040518363ffffffff1660e01b815260040161034c929190611601565b602060405180830381865afa158015610369573d6000803e3d6000fd5b505050506040513d601f19601f8201168201806040525081019061038d9190611656565b6103cc576040517f08c379a00000000000000000000000000000000000000000000000000000000081526004016103c3906116e0565b60405180910390fd5b60008054906101000a900473ffffffffffffffffffffffffffffffffffffffff1673ffffffffffffffffffffffffffffffffffffffff1663033b279f8787878787876040518763ffffffff1660e01b815260040161042f9695949392919061170f565b600060405180830381600087803b15801561044957600080fd5b505af115801561045d573d6000803e3d6000fd5b50505050505050505050565b610471611091565b60008054906101000a900473ffffffffffffffffffffffffffffffffffffffff1673ffffffffffffffffffffffffffffffffffffffff16630f990f19836040518263ffffffff1660e01b81526004016104ca9190611770565b61018060405180830381865afa1580156104e8573d6000803e3d6000fd5b505050506040513d601f19601f8201168201806040525081019061050c9190611968565b9050919050565b600260009054906101000a900473ffffffffffffffffffffffffffffffffffffffff1673ffffffffffffffffffffffffffffffffffffffff166391d14854600260009054906101000a900473ffffffffffffffffffffffffffffffffffffffff1673ffffffffffffffffffffffffffffffffffffffff16638aeda25a6040518163ffffffff1660e01b8152600401602060405180830381865afa1580156105be573d6000803e3d6000fd5b505050506040513d601f19601f820116820180604052508101906105e291906115b6565b336040518363ffffffff1660e01b8152600401610600929190611601565b602060405180830381865afa15801561061d573d6000803e3d6000fd5b505050506040513d601f19601f820116820180604052508101906106419190611656565b610680576040517f08c379a0000000000000000000000000000000000000000000000000000000008152600401610677906119e2565b60405180910390fd5b600260009054906101000a900473ffffffffffffffffffffffffffffffffffffffff1673ffffffffffffffffffffffffffffffffffffffff16632f2ff15d600260009054906101000a900473ffffffffffffffffffffffffffffffffffffffff1673ffffffffffffffffffffffffffffffffffffffff1663e58c45346040518163ffffffff1660e01b8152600401602060405180830381865afa15801561072b573d6000803e3d6000fd5b505050506040513d601f19601f8201168201806040525081019061074f91906115b6565b836040518363ffffffff1660e01b815260040161076d929190611601565b600060405180830381600087803b15801561078757600080fd5b505af115801561079b573d6000803e3d6000fd5b5050505050565b600260009054906101000a900473ffffffffffffffffffffffffffffffffffffffff1681565b60008060009054906101000a900473ffffffffffffffffffffffffffffffffffffffff1673ffffffffffffffffffffffffffffffffffffffff16630f990f19836040518263ffffffff1660e01b81526004016108249190611770565b61018060405180830381865afa158015610842573d6000803e3d6000fd5b505050506040513d601f19601f820116820180604052508101906108669190611968565b608001519050919050565b60008054906101000a900473ffffffffffffffffffffffffffffffffffffffff1681565b600260009054906101000a900473ffffffffffffffffffffffffffffffffffffffff1673ffffffffffffffffffffffffffffffffffffffff166391d14854600260009054906101000a900473ffffffffffffffffffffffffffffffffffffffff1673ffffffffffffffffffffffffffffffffffffffff1663e58c45346040518163ffffffff1660e01b8152600401602060405180830381865afa158015610940573d6000803e3d6000fd5b505050506040513d601f19601f8201168201806040525081019061096491906115b6565b336040518363ffffffff1660e01b8152600401610982929190611601565b602060405180830381865afa15801561099f573d6000803e3d6000fd5b505050506040513d601f19601f820116820180604052508101906109c39190611656565b610a02576040517f08c379a00000000000000000000000000000000000000000000000000000000081526004016109f990611a4e565b60405180910390fd5b600260009054906101000a900473ffffffffffffffffffffffffffffffffffffffff1673ffffffffffffffffffffffffffffffffffffffff16632f2ff15d600260009054906101000a900473ffffffffffffffffffffffffffffffffffffffff1673ffffffffffffffffffffffffffffffffffffffff16638aeda25a6040518163ffffffff1660e01b8152600401602060405180830381865afa158015610aad573d6000803e3d6000fd5b505050506040513d601f19601f82011682018060405250810190610ad191906115b6565b836040518363ffffffff1660e01b8152600401610aef929190611601565b600060405180830381600087803b158015610b0957600080fd5b505af1158015610b1d573d6000803e3d6000fd5b5050505050565b600260009054906101000a900473ffffffffffffffffffffffffffffffffffffffff1673ffffffffffffffffffffffffffffffffffffffff166391d14854600260009054906101000a900473ffffffffffffffffffffffffffffffffffffffff1673ffffffffffffffffffffffffffffffffffffffff16638aeda25a6040518163ffffffff1660e01b8152600401602060405180830381865afa158015610bcf573d6000803e3d6000fd5b505050506040513d601f19601f82011682018060405250810190610bf391906115b6565b336040518363ffffffff1660e01b8152600401610c11929190611601565b602060405180830381865afa158015610c2e573d6000803e3d6000fd5b505050506040513d601f19601f82011682018060405250810190610c529190611656565b610c91576040517f08c379a0000000000000000000000000000000000000000000000000000000008152600401610c8890611aba565b60405180910390fd5b60008054906101000a900473ffffffffffffffffffffffffffffffffffffffff1673ffffffffffffffffffffffffffffffffffffffff1663743e32a0826040518263ffffffff1660e01b8152600401610cea9190611770565b600060405180830381600087803b158015610d0457600080fd5b505af1158015610d18573d6000803e3d6000fd5b5050505050565b60008060009054906101000a900473ffffffffffffffffffffffffffffffffffffffff1673ffffffffffffffffffffffffffffffffffffffff16630f990f19836040518263ffffffff1660e01b8152600401610d7b9190611770565b61018060405180830381865afa158015610d99573d6000803e3d6000fd5b505050506040513d601f19601f82011682018060405250810190610dbd9190611968565b60e001519050919050565b6000600260009054906101000a900473ffffffffffffffffffffffffffffffffffffffff1673ffffffffffffffffffffffffffffffffffffffff166391d1485484846040518363ffffffff1660e01b8152600401610e27929190611601565b602060405180830381865afa158015610e44573d6000803e3d6000fd5b505050506040513d601f19601f82011682018060405250810190610e689190611656565b905092915050565b600160009054906101000a900473ffffffffffffffffffffffffffffffffffffffff1681565b600260009054906101000a900473ffffffffffffffffffffffffffffffffffffffff1673ffffffffffffffffffffffffffffffffffffffff166391d14854600260009054906101000a900473ffffffffffffffffffffffffffffffffffffffff1673ffffffffffffffffffffffffffffffffffffffff16638aeda25a6040518163ffffffff1660e01b8152600401602060405180830381865afa158015610f41573d6000803e3d6000fd5b505050506040513d601f19601f82011682018060405250810190610f6591906115b6565b336040518363ffffffff1660e01b8152600401610f83929190611601565b602060405180830381865afa158015610fa0573d6000803e3d6000fd5b505050506040513d601f19601f82011682018060405250810190610fc49190611656565b611003576040517f08c379a0000000000000000000000000000000000000000000000000000000008152600401610ffa90611aba565b60405180910390fd5b60008054906101000a900473ffffffffffffffffffffffffffffffffffffffff1673ffffffffffffffffffffffffffffffffffffffff1663ae86d330826040518263ffffffff1660e01b815260040161105c9190611770565b600060405180830381600087803b15801561107657600080fd5b505af115801561108a573d6000803e3d6000fd5b5050505050565b60405180610180016040528060008152602001600073ffffffffffffffffffffffffffffffffffffffff168152602001600073ffffffffffffffffffffffffffffffffffffffff16815260200160008152602001600015158152602001600073ffffffffffffffffffffffffffffffffffffffff168152602001600015158152602001600015158152602001600081526020016000815260200160008152602001600081525090565b6000604051905090565b600080fd5b6000819050919050565b61115c81611149565b811461116757600080fd5b50565b60008135905061117981611153565b92915050565b600073ffffffffffffffffffffffffffffffffffffffff82169050919050565b60006111aa8261117f565b9050919050565b6111ba8161119f565b81146111c557600080fd5b50565b6000813590506111d7816111b1565b92915050565b60008060008060008060c087890312156111fa576111f9611144565b5b600061120889828a0161116a565b965050602061121989828a016111c8565b955050604061122a89828a0161116a565b945050606061123b89828a016111c8565b935050608061124c89828a0161116a565b92505060a061125d89828a0161116a565b9150509295509295509295565b6000602082840312156112805761127f611144565b5b600061128e8482850161116a565b91505092915050565b6112a081611149565b82525050565b6112af8161119f565b82525050565b60008115159050919050565b6112ca816112b5565b82525050565b610180820160008201516112e76000850182611297565b5060208201516112fa60208501826112a6565b50604082015161130d60408501826112a6565b5060608201516113206060850182611297565b50608082015161133360808501826112c1565b5060a082015161134660a08501826112a6565b5060c082015161135960c08501826112c1565b5060e082015161136c60e08501826112c1565b50610100820151611381610100850182611297565b50610120820151611396610120850182611297565b506101408201516113ab610140850182611297565b506101608201516113c0610160850182611297565b50505050565b6000610180820190506113dc60008301846112d0565b92915050565b6000602082840312156113f8576113f7611144565b5b6000611406848285016111c8565b91505092915050565b6000819050919050565b600061143461142f61142a8461117f565b61140f565b61117f565b9050919050565b600061144682611419565b9050919050565b60006114588261143b565b9050919050565b6114688161144d565b82525050565b6000602082019050611483600083018461145f565b92915050565b611492816112b5565b82525050565b60006020820190506114ad6000830184611489565b92915050565b60006114be8261143b565b9050919050565b6114ce816114b3565b82525050565b60006020820190506114e960008301846114c5565b92915050565b6000819050919050565b611502816114ef565b811461150d57600080fd5b50565b60008135905061151f816114f9565b92915050565b6000806040838503121561153c5761153b611144565b5b600061154a85828601611510565b925050602061155b858286016111c8565b9150509250929050565b60006115708261143b565b9050919050565b61158081611565565b82525050565b600060208201905061159b6000830184611577565b92915050565b6000815190506115b0816114f9565b92915050565b6000602082840312156115cc576115cb611144565b5b60006115da848285016115a1565b91505092915050565b6115ec816114ef565b82525050565b6115fb8161119f565b82525050565b600060408201905061161660008301856115e3565b61162360208301846115f2565b9392505050565b611633816112b5565b811461163e57600080fd5b50565b6000815190506116508161162a565b92915050565b60006020828403121561166c5761166b611144565b5b600061167a84828501611641565b91505092915050565b600082825260208201905092915050565b7f43616c6c6572206973206e6f7420616e20616476657274697365720000000000600082015250565b60006116ca601b83611683565b91506116d582611694565b602082019050919050565b600060208201905081810360008301526116f9816116bd565b9050919050565b61170981611149565b82525050565b600060c0820190506117246000830189611700565b61173160208301886115f2565b61173e6040830187611700565b61174b60608301866115f2565b6117586080830185611700565b61176560a0830184611700565b979650505050505050565b60006020820190506117856000830184611700565b92915050565b600080fd5b6000601f19601f8301169050919050565b7f4e487b7100000000000000000000000000000000000000000000000000000000600052604160045260246000fd5b6117d982611790565b810181811067ffffffffffffffff821117156117f8576117f76117a1565b5b80604052505050565b600061180b61113a565b905061181782826117d0565b919050565b60008151905061182b81611153565b92915050565b600081519050611840816111b1565b92915050565b6000610180828403121561185d5761185c61178b565b5b611868610180611801565b905060006118788482850161181c565b600083015250602061188c84828501611831565b60208301525060406118a084828501611831565b60408301525060606118b48482850161181c565b60608301525060806118c884828501611641565b60808301525060a06118dc84828501611831565b60a08301525060c06118f084828501611641565b60c08301525060e061190484828501611641565b60e0830152506101006119198482850161181c565b6101008301525061012061192f8482850161181c565b610120830152506101406119458482850161181c565b6101408301525061016061195b8482850161181c565b6101608301525092915050565b6000610180828403121561197f5761197e611144565b5b600061198d84828501611846565b91505092915050565b7f43616c6c657220697320612063726561746f7200000000000000000000000000600082015250565b60006119cc601383611683565b91506119d782611996565b602082019050919050565b600060208201905081810360008301526119fb816119bf565b9050919050565b7f43616c6c657220697320616e2061647665727469736572000000000000000000600082015250565b6000611a38601783611683565b9150611a4382611a02565b602082019050919050565b60006020820190508181036000830152611a6781611a2b565b9050919050565b7f43616c6c6572206973206e6f7420612063726561746f72000000000000000000600082015250565b6000611aa4601783611683565b9150611aaf82611a6e565b602082019050919050565b60006020820190508181036000830152611ad381611a97565b905091905056fea2646970667358221220681c256aed66db1b4782b89d52fb744f8e9ec33ee62cddd36b77cb409e9c384964736f6c63430008180033",
  "linkReferences": {},
  "deployedLinkReferences": {}
}